{
	"contracts/Guess.sol": {
		"GuessNumber": {
			"abi": [
				{
					"inputs": [
						{
							"internalType": "uint256",
							"name": "guessNum",
							"type": "uint256"
						}
					],
					"name": "guess",
					"outputs": [],
					"stateMutability": "payable",
					"type": "function"
				},
				{
					"inputs": [
						{
							"internalType": "uint256",
							"name": "",
							"type": "uint256"
						}
					],
					"name": "guessHistory",
					"outputs": [
						{
							"internalType": "address",
							"name": "person",
							"type": "address"
						},
						{
							"internalType": "uint256",
							"name": "number",
							"type": "uint256"
						}
					],
					"stateMutability": "view",
					"type": "function"
				}
			],
			"devdoc": {
				"kind": "dev",
				"methods": {},
				"version": 1
			},
			"evm": {
				"assembly": "    /* \"contracts/Guess.sol\":57:535  contract GuessNumber {... */\n  mstore(0x40, 0x80)\n    /* \"contracts/Guess.sol\":106:109  666 */\n  0x029a\n    /* \"contracts/Guess.sol\":84:109  uint256 luckyNumber = 666 */\n  0x00\n  sstore\n    /* \"contracts/Guess.sol\":57:535  contract GuessNumber {... */\n  callvalue\n  dup1\n  iszero\n  tag_1\n  jumpi\n  0x00\n  dup1\n  revert\ntag_1:\n  pop\n  dataSize(sub_0)\n  dup1\n  dataOffset(sub_0)\n  0x00\n  codecopy\n  0x00\n  return\nstop\n\nsub_0: assembly {\n        /* \"contracts/Guess.sol\":57:535  contract GuessNumber {... */\n      mstore(0x40, 0x80)\n      jumpi(tag_1, lt(calldatasize, 0x04))\n      shr(0xe0, calldataload(0x00))\n      dup1\n      0x37ee3fae\n      eq\n      tag_2\n      jumpi\n      dup1\n      0x9189fec1\n      eq\n      tag_3\n      jumpi\n    tag_1:\n      0x00\n      dup1\n      revert\n        /* \"contracts/Guess.sol\":194:227  GuessPerson[] public guessHistory */\n    tag_2:\n      callvalue\n      dup1\n      iszero\n      tag_4\n      jumpi\n      0x00\n      dup1\n      revert\n    tag_4:\n      pop\n      tag_5\n      0x04\n      dup1\n      calldatasize\n      sub\n      dup2\n      add\n      swap1\n      tag_6\n      swap2\n      swap1\n      tag_7\n      jump\t// in\n    tag_6:\n      tag_8\n      jump\t// in\n    tag_5:\n      mload(0x40)\n      tag_9\n      swap3\n      swap2\n      swap1\n      tag_10\n      jump\t// in\n    tag_9:\n      mload(0x40)\n      dup1\n      swap2\n      sub\n      swap1\n      return\n        /* \"contracts/Guess.sol\":234:533  function guess(uint256 guessNum) public payable {... */\n    tag_3:\n      tag_11\n      0x04\n      dup1\n      calldatasize\n      sub\n      dup2\n      add\n      swap1\n      tag_12\n      swap2\n      swap1\n      tag_7\n      jump\t// in\n    tag_12:\n      tag_13\n      jump\t// in\n    tag_11:\n      stop\n        /* \"contracts/Guess.sol\":194:227  GuessPerson[] public guessHistory */\n    tag_8:\n      0x01\n      dup2\n      dup2\n      sload\n      dup2\n      lt\n      tag_14\n      jumpi\n      0x00\n      dup1\n      revert\n    tag_14:\n      swap1\n      0x00\n      mstore\n      keccak256(0x00, 0x20)\n      swap1\n      0x02\n      mul\n      add\n      0x00\n      swap2\n      pop\n      swap1\n      pop\n      dup1\n      0x00\n      add\n      0x00\n      swap1\n      sload\n      swap1\n      0x0100\n      exp\n      swap1\n      div\n      0xffffffffffffffffffffffffffffffffffffffff\n      and\n      swap1\n      dup1\n      0x01\n      add\n      sload\n      swap1\n      pop\n      dup3\n      jump\t// out\n        /* \"contracts/Guess.sol\":234:533  function guess(uint256 guessNum) public payable {... */\n    tag_13:\n        /* \"contracts/Guess.sol\":292:319  GuessPerson memory newGuess */\n      0x00\n        /* \"contracts/Guess.sol\":322:407  GuessPerson({... */\n      mload(0x40)\n      dup1\n      0x40\n      add\n      0x40\n      mstore\n      dup1\n        /* \"contracts/Guess.sol\":356:366  msg.sender */\n      caller\n        /* \"contracts/Guess.sol\":322:407  GuessPerson({... */\n      0xffffffffffffffffffffffffffffffffffffffff\n      and\n      dup2\n      mstore\n      0x20\n      add\n        /* \"contracts/Guess.sol\":388:396  guessNum */\n      dup4\n        /* \"contracts/Guess.sol\":322:407  GuessPerson({... */\n      dup2\n      mstore\n      pop\n        /* \"contracts/Guess.sol\":292:407  GuessPerson memory newGuess = GuessPerson({... */\n      swap1\n      pop\n        /* \"contracts/Guess.sol\":417:429  guessHistory */\n      0x01\n        /* \"contracts/Guess.sol\":435:443  newGuess */\n      dup2\n        /* \"contracts/Guess.sol\":417:444  guessHistory.push(newGuess) */\n      swap1\n      dup1\n      0x01\n      dup2\n      sload\n      add\n      dup1\n      dup3\n      sstore\n      dup1\n      swap2\n      pop\n      pop\n      0x01\n      swap1\n      sub\n      swap1\n      0x00\n      mstore\n      keccak256(0x00, 0x20)\n      swap1\n      0x02\n      mul\n      add\n      0x00\n      swap1\n      swap2\n      swap1\n      swap2\n      swap1\n      swap2\n      pop\n      0x00\n      dup3\n      add\n      mload\n      dup2\n      0x00\n      add\n      exp(0x0100, 0x00)\n      dup2\n      sload\n      dup2\n      0xffffffffffffffffffffffffffffffffffffffff\n      mul\n      not\n      and\n      swap1\n      dup4\n      0xffffffffffffffffffffffffffffffffffffffff\n      and\n      mul\n      or\n      swap1\n      sstore\n      pop\n      0x20\n      dup3\n      add\n      mload\n      dup2\n      0x01\n      add\n      sstore\n      pop\n      pop\n        /* \"contracts/Guess.sol\":470:481  luckyNumber */\n      sload(0x00)\n        /* \"contracts/Guess.sol\":458:466  guessNum */\n      dup3\n        /* \"contracts/Guess.sol\":458:481  guessNum == luckyNumber */\n      sub\n        /* \"contracts/Guess.sol\":454:526  if (guessNum == luckyNumber) payable(msg.sender).transfer(msg.value * 2) */\n      tag_18\n      jumpi\n        /* \"contracts/Guess.sol\":491:501  msg.sender */\n      caller\n        /* \"contracts/Guess.sol\":483:511  payable(msg.sender).transfer */\n      0xffffffffffffffffffffffffffffffffffffffff\n      and\n        /* \"contracts/Guess.sol\":483:526  payable(msg.sender).transfer(msg.value * 2) */\n      0x08fc\n        /* \"contracts/Guess.sol\":524:525  2 */\n      0x02\n        /* \"contracts/Guess.sol\":512:521  msg.value */\n      callvalue\n        /* \"contracts/Guess.sol\":512:525  msg.value * 2 */\n      tag_19\n      swap2\n      swap1\n      tag_20\n      jump\t// in\n    tag_19:\n        /* \"contracts/Guess.sol\":483:526  payable(msg.sender).transfer(msg.value * 2) */\n      swap1\n      dup2\n      iszero\n      mul\n      swap1\n      mload(0x40)\n      0x00\n      mload(0x40)\n      dup1\n      dup4\n      sub\n      dup2\n      dup6\n      dup9\n      dup9\n      call\n      swap4\n      pop\n      pop\n      pop\n      pop\n      iszero\n      dup1\n      iszero\n      tag_22\n      jumpi\n      returndatasize\n      0x00\n      dup1\n      returndatacopy\n      revert(0x00, returndatasize)\n    tag_22:\n      pop\n        /* \"contracts/Guess.sol\":454:526  if (guessNum == luckyNumber) payable(msg.sender).transfer(msg.value * 2) */\n    tag_18:\n        /* \"contracts/Guess.sol\":282:533  {... */\n      pop\n        /* \"contracts/Guess.sol\":234:533  function guess(uint256 guessNum) public payable {... */\n      pop\n      jump\t// out\n        /* \"#utility.yul\":88:205   */\n    tag_24:\n        /* \"#utility.yul\":197:198   */\n      0x00\n        /* \"#utility.yul\":194:195   */\n      dup1\n        /* \"#utility.yul\":187:199   */\n      revert\n        /* \"#utility.yul\":334:411   */\n    tag_26:\n        /* \"#utility.yul\":371:378   */\n      0x00\n        /* \"#utility.yul\":400:405   */\n      dup2\n        /* \"#utility.yul\":389:405   */\n      swap1\n      pop\n        /* \"#utility.yul\":334:411   */\n      swap2\n      swap1\n      pop\n      jump\t// out\n        /* \"#utility.yul\":417:539   */\n    tag_27:\n        /* \"#utility.yul\":490:514   */\n      tag_40\n        /* \"#utility.yul\":508:513   */\n      dup2\n        /* \"#utility.yul\":490:514   */\n      tag_26\n      jump\t// in\n    tag_40:\n        /* \"#utility.yul\":483:488   */\n      dup2\n        /* \"#utility.yul\":480:515   */\n      eq\n        /* \"#utility.yul\":470:533   */\n      tag_41\n      jumpi\n        /* \"#utility.yul\":529:530   */\n      0x00\n        /* \"#utility.yul\":526:527   */\n      dup1\n        /* \"#utility.yul\":519:531   */\n      revert\n        /* \"#utility.yul\":470:533   */\n    tag_41:\n        /* \"#utility.yul\":417:539   */\n      pop\n      jump\t// out\n        /* \"#utility.yul\":545:684   */\n    tag_28:\n        /* \"#utility.yul\":591:596   */\n      0x00\n        /* \"#utility.yul\":629:635   */\n      dup2\n        /* \"#utility.yul\":616:636   */\n      calldataload\n        /* \"#utility.yul\":607:636   */\n      swap1\n      pop\n        /* \"#utility.yul\":645:678   */\n      tag_43\n        /* \"#utility.yul\":672:677   */\n      dup2\n        /* \"#utility.yul\":645:678   */\n      tag_27\n      jump\t// in\n    tag_43:\n        /* \"#utility.yul\":545:684   */\n      swap3\n      swap2\n      pop\n      pop\n      jump\t// out\n        /* \"#utility.yul\":690:1019   */\n    tag_7:\n        /* \"#utility.yul\":749:755   */\n      0x00\n        /* \"#utility.yul\":798:800   */\n      0x20\n        /* \"#utility.yul\":786:795   */\n      dup3\n        /* \"#utility.yul\":777:784   */\n      dup5\n        /* \"#utility.yul\":773:796   */\n      sub\n        /* \"#utility.yul\":769:801   */\n      slt\n        /* \"#utility.yul\":766:885   */\n      iszero\n      tag_45\n      jumpi\n        /* \"#utility.yul\":804:883   */\n      tag_46\n      tag_24\n      jump\t// in\n    tag_46:\n        /* \"#utility.yul\":766:885   */\n    tag_45:\n        /* \"#utility.yul\":924:925   */\n      0x00\n        /* \"#utility.yul\":949:1002   */\n      tag_47\n        /* \"#utility.yul\":994:1001   */\n      dup5\n        /* \"#utility.yul\":985:991   */\n      dup3\n        /* \"#utility.yul\":974:983   */\n      dup6\n        /* \"#utility.yul\":970:992   */\n      add\n        /* \"#utility.yul\":949:1002   */\n      tag_28\n      jump\t// in\n    tag_47:\n        /* \"#utility.yul\":939:1002   */\n      swap2\n      pop\n        /* \"#utility.yul\":895:1012   */\n      pop\n        /* \"#utility.yul\":690:1019   */\n      swap3\n      swap2\n      pop\n      pop\n      jump\t// out\n        /* \"#utility.yul\":1025:1151   */\n    tag_29:\n        /* \"#utility.yul\":1062:1069   */\n      0x00\n        /* \"#utility.yul\":1102:1144   */\n      0xffffffffffffffffffffffffffffffffffffffff\n        /* \"#utility.yul\":1095:1100   */\n      dup3\n        /* \"#utility.yul\":1091:1145   */\n      and\n        /* \"#utility.yul\":1080:1145   */\n      swap1\n      pop\n        /* \"#utility.yul\":1025:1151   */\n      swap2\n      swap1\n      pop\n      jump\t// out\n        /* \"#utility.yul\":1157:1253   */\n    tag_30:\n        /* \"#utility.yul\":1194:1201   */\n      0x00\n        /* \"#utility.yul\":1223:1247   */\n      tag_50\n        /* \"#utility.yul\":1241:1246   */\n      dup3\n        /* \"#utility.yul\":1223:1247   */\n      tag_29\n      jump\t// in\n    tag_50:\n        /* \"#utility.yul\":1212:1247   */\n      swap1\n      pop\n        /* \"#utility.yul\":1157:1253   */\n      swap2\n      swap1\n      pop\n      jump\t// out\n        /* \"#utility.yul\":1259:1377   */\n    tag_31:\n        /* \"#utility.yul\":1346:1370   */\n      tag_52\n        /* \"#utility.yul\":1364:1369   */\n      dup2\n        /* \"#utility.yul\":1346:1370   */\n      tag_30\n      jump\t// in\n    tag_52:\n        /* \"#utility.yul\":1341:1344   */\n      dup3\n        /* \"#utility.yul\":1334:1371   */\n      mstore\n        /* \"#utility.yul\":1259:1377   */\n      pop\n      pop\n      jump\t// out\n        /* \"#utility.yul\":1383:1501   */\n    tag_32:\n        /* \"#utility.yul\":1470:1494   */\n      tag_54\n        /* \"#utility.yul\":1488:1493   */\n      dup2\n        /* \"#utility.yul\":1470:1494   */\n      tag_26\n      jump\t// in\n    tag_54:\n        /* \"#utility.yul\":1465:1468   */\n      dup3\n        /* \"#utility.yul\":1458:1495   */\n      mstore\n        /* \"#utility.yul\":1383:1501   */\n      pop\n      pop\n      jump\t// out\n        /* \"#utility.yul\":1507:1839   */\n    tag_10:\n        /* \"#utility.yul\":1628:1632   */\n      0x00\n        /* \"#utility.yul\":1666:1668   */\n      0x40\n        /* \"#utility.yul\":1655:1664   */\n      dup3\n        /* \"#utility.yul\":1651:1669   */\n      add\n        /* \"#utility.yul\":1643:1669   */\n      swap1\n      pop\n        /* \"#utility.yul\":1679:1750   */\n      tag_56\n        /* \"#utility.yul\":1747:1748   */\n      0x00\n        /* \"#utility.yul\":1736:1745   */\n      dup4\n        /* \"#utility.yul\":1732:1749   */\n      add\n        /* \"#utility.yul\":1723:1729   */\n      dup6\n        /* \"#utility.yul\":1679:1750   */\n      tag_31\n      jump\t// in\n    tag_56:\n        /* \"#utility.yul\":1760:1832   */\n      tag_57\n        /* \"#utility.yul\":1828:1830   */\n      0x20\n        /* \"#utility.yul\":1817:1826   */\n      dup4\n        /* \"#utility.yul\":1813:1831   */\n      add\n        /* \"#utility.yul\":1804:1810   */\n      dup5\n        /* \"#utility.yul\":1760:1832   */\n      tag_32\n      jump\t// in\n    tag_57:\n        /* \"#utility.yul\":1507:1839   */\n      swap4\n      swap3\n      pop\n      pop\n      pop\n      jump\t// out\n        /* \"#utility.yul\":1845:2025   */\n    tag_33:\n        /* \"#utility.yul\":1893:1970   */\n      0x4e487b7100000000000000000000000000000000000000000000000000000000\n        /* \"#utility.yul\":1890:1891   */\n      0x00\n        /* \"#utility.yul\":1883:1971   */\n      mstore\n        /* \"#utility.yul\":1990:1994   */\n      0x11\n        /* \"#utility.yul\":1987:1988   */\n      0x04\n        /* \"#utility.yul\":1980:1995   */\n      mstore\n        /* \"#utility.yul\":2014:2018   */\n      0x24\n        /* \"#utility.yul\":2011:2012   */\n      0x00\n        /* \"#utility.yul\":2004:2019   */\n      revert\n        /* \"#utility.yul\":2031:2441   */\n    tag_20:\n        /* \"#utility.yul\":2071:2078   */\n      0x00\n        /* \"#utility.yul\":2094:2114   */\n      tag_60\n        /* \"#utility.yul\":2112:2113   */\n      dup3\n        /* \"#utility.yul\":2094:2114   */\n      tag_26\n      jump\t// in\n    tag_60:\n        /* \"#utility.yul\":2089:2114   */\n      swap2\n      pop\n        /* \"#utility.yul\":2128:2148   */\n      tag_61\n        /* \"#utility.yul\":2146:2147   */\n      dup4\n        /* \"#utility.yul\":2128:2148   */\n      tag_26\n      jump\t// in\n    tag_61:\n        /* \"#utility.yul\":2123:2148   */\n      swap3\n      pop\n        /* \"#utility.yul\":2183:2184   */\n      dup3\n        /* \"#utility.yul\":2180:2181   */\n      dup3\n        /* \"#utility.yul\":2176:2185   */\n      mul\n        /* \"#utility.yul\":2205:2235   */\n      tag_62\n        /* \"#utility.yul\":2223:2234   */\n      dup2\n        /* \"#utility.yul\":2205:2235   */\n      tag_26\n      jump\t// in\n    tag_62:\n        /* \"#utility.yul\":2194:2235   */\n      swap2\n      pop\n        /* \"#utility.yul\":2384:2385   */\n      dup3\n        /* \"#utility.yul\":2375:2382   */\n      dup3\n        /* \"#utility.yul\":2371:2386   */\n      div\n        /* \"#utility.yul\":2368:2369   */\n      dup5\n        /* \"#utility.yul\":2365:2387   */\n      eq\n        /* \"#utility.yul\":2345:2346   */\n      dup4\n        /* \"#utility.yul\":2338:2347   */\n      iszero\n        /* \"#utility.yul\":2318:2401   */\n      or\n        /* \"#utility.yul\":2295:2434   */\n      tag_63\n      jumpi\n        /* \"#utility.yul\":2414:2432   */\n      tag_64\n      tag_33\n      jump\t// in\n    tag_64:\n        /* \"#utility.yul\":2295:2434   */\n    tag_63:\n        /* \"#utility.yul\":2079:2441   */\n      pop\n        /* \"#utility.yul\":2031:2441   */\n      swap3\n      swap2\n      pop\n      pop\n      jump\t// out\n\n    auxdata: 0xa264697066735822122002f63f5af6b7c9182b87a97e956b35c8abbaadab612fca9e6cb4e0accd7fc7a064736f6c634300081a0033\n}\n",
				"bytecode": {
					"linkReferences": {},
					"object": "608060405261029a600055348015601557600080fd5b50610373806100256000396000f3fe6080604052600436106100295760003560e01c806337ee3fae1461002e5780639189fec11461006c575b600080fd5b34801561003a57600080fd5b5061005560048036038101906100509190610226565b610088565b6040516100639291906102a3565b60405180910390f35b61008660048036038101906100819190610226565b6100dc565b005b6001818154811061009857600080fd5b90600052602060002090600202016000915090508060000160009054906101000a900473ffffffffffffffffffffffffffffffffffffffff16908060010154905082565b600060405180604001604052803373ffffffffffffffffffffffffffffffffffffffff168152602001838152509050600181908060018154018082558091505060019003906000526020600020906002020160009091909190915060008201518160000160006101000a81548173ffffffffffffffffffffffffffffffffffffffff021916908373ffffffffffffffffffffffffffffffffffffffff16021790555060208201518160010155505060005482036101e7573373ffffffffffffffffffffffffffffffffffffffff166108fc6002346101ba91906102fb565b9081150290604051600060405180830381858888f193505050501580156101e5573d6000803e3d6000fd5b505b5050565b600080fd5b6000819050919050565b610203816101f0565b811461020e57600080fd5b50565b600081359050610220816101fa565b92915050565b60006020828403121561023c5761023b6101eb565b5b600061024a84828501610211565b91505092915050565b600073ffffffffffffffffffffffffffffffffffffffff82169050919050565b600061027e82610253565b9050919050565b61028e81610273565b82525050565b61029d816101f0565b82525050565b60006040820190506102b86000830185610285565b6102c56020830184610294565b9392505050565b7f4e487b7100000000000000000000000000000000000000000000000000000000600052601160045260246000fd5b6000610306826101f0565b9150610311836101f0565b925082820261031f816101f0565b91508282048414831517610336576103356102cc565b5b509291505056fea264697066735822122002f63f5af6b7c9182b87a97e956b35c8abbaadab612fca9e6cb4e0accd7fc7a064736f6c634300081a0033",
					"opcodes": "PUSH1 0x80 PUSH1 0x40 MSTORE PUSH2 0x29A PUSH1 0x0 SSTORE CALLVALUE DUP1 ISZERO PUSH1 0x15 JUMPI PUSH1 0x0 DUP1 REVERT JUMPDEST POP PUSH2 0x373 DUP1 PUSH2 0x25 PUSH1 0x0 CODECOPY PUSH1 0x0 RETURN INVALID PUSH1 0x80 PUSH1 0x40 MSTORE PUSH1 0x4 CALLDATASIZE LT PUSH2 0x29 JUMPI PUSH1 0x0 CALLDATALOAD PUSH1 0xE0 SHR DUP1 PUSH4 0x37EE3FAE EQ PUSH2 0x2E JUMPI DUP1 PUSH4 0x9189FEC1 EQ PUSH2 0x6C JUMPI JUMPDEST PUSH1 0x0 DUP1 REVERT JUMPDEST CALLVALUE DUP1 ISZERO PUSH2 0x3A JUMPI PUSH1 0x0 DUP1 REVERT JUMPDEST POP PUSH2 0x55 PUSH1 0x4 DUP1 CALLDATASIZE SUB DUP2 ADD SWAP1 PUSH2 0x50 SWAP2 SWAP1 PUSH2 0x226 JUMP JUMPDEST PUSH2 0x88 JUMP JUMPDEST PUSH1 0x40 MLOAD PUSH2 0x63 SWAP3 SWAP2 SWAP1 PUSH2 0x2A3 JUMP JUMPDEST PUSH1 0x40 MLOAD DUP1 SWAP2 SUB SWAP1 RETURN JUMPDEST PUSH2 0x86 PUSH1 0x4 DUP1 CALLDATASIZE SUB DUP2 ADD SWAP1 PUSH2 0x81 SWAP2 SWAP1 PUSH2 0x226 JUMP JUMPDEST PUSH2 0xDC JUMP JUMPDEST STOP JUMPDEST PUSH1 0x1 DUP2 DUP2 SLOAD DUP2 LT PUSH2 0x98 JUMPI PUSH1 0x0 DUP1 REVERT JUMPDEST SWAP1 PUSH1 0x0 MSTORE PUSH1 0x20 PUSH1 0x0 KECCAK256 SWAP1 PUSH1 0x2 MUL ADD PUSH1 0x0 SWAP2 POP SWAP1 POP DUP1 PUSH1 0x0 ADD PUSH1 0x0 SWAP1 SLOAD SWAP1 PUSH2 0x100 EXP SWAP1 DIV PUSH20 0xFFFFFFFFFFFFFFFFFFFFFFFFFFFFFFFFFFFFFFFF AND SWAP1 DUP1 PUSH1 0x1 ADD SLOAD SWAP1 POP DUP3 JUMP JUMPDEST PUSH1 0x0 PUSH1 0x40 MLOAD DUP1 PUSH1 0x40 ADD PUSH1 0x40 MSTORE DUP1 CALLER PUSH20 0xFFFFFFFFFFFFFFFFFFFFFFFFFFFFFFFFFFFFFFFF AND DUP2 MSTORE PUSH1 0x20 ADD DUP4 DUP2 MSTORE POP SWAP1 POP PUSH1 0x1 DUP2 SWAP1 DUP1 PUSH1 0x1 DUP2 SLOAD ADD DUP1 DUP3 SSTORE DUP1 SWAP2 POP POP PUSH1 0x1 SWAP1 SUB SWAP1 PUSH1 0x0 MSTORE PUSH1 0x20 PUSH1 0x0 KECCAK256 SWAP1 PUSH1 0x2 MUL ADD PUSH1 0x0 SWAP1 SWAP2 SWAP1 SWAP2 SWAP1 SWAP2 POP PUSH1 0x0 DUP3 ADD MLOAD DUP2 PUSH1 0x0 ADD PUSH1 0x0 PUSH2 0x100 EXP DUP2 SLOAD DUP2 PUSH20 0xFFFFFFFFFFFFFFFFFFFFFFFFFFFFFFFFFFFFFFFF MUL NOT AND SWAP1 DUP4 PUSH20 0xFFFFFFFFFFFFFFFFFFFFFFFFFFFFFFFFFFFFFFFF AND MUL OR SWAP1 SSTORE POP PUSH1 0x20 DUP3 ADD MLOAD DUP2 PUSH1 0x1 ADD SSTORE POP POP PUSH1 0x0 SLOAD DUP3 SUB PUSH2 0x1E7 JUMPI CALLER PUSH20 0xFFFFFFFFFFFFFFFFFFFFFFFFFFFFFFFFFFFFFFFF AND PUSH2 0x8FC PUSH1 0x2 CALLVALUE PUSH2 0x1BA SWAP2 SWAP1 PUSH2 0x2FB JUMP JUMPDEST SWAP1 DUP2 ISZERO MUL SWAP1 PUSH1 0x40 MLOAD PUSH1 0x0 PUSH1 0x40 MLOAD DUP1 DUP4 SUB DUP2 DUP6 DUP9 DUP9 CALL SWAP4 POP POP POP POP ISZERO DUP1 ISZERO PUSH2 0x1E5 JUMPI RETURNDATASIZE PUSH1 0x0 DUP1 RETURNDATACOPY RETURNDATASIZE PUSH1 0x0 REVERT JUMPDEST POP JUMPDEST POP POP JUMP JUMPDEST PUSH1 0x0 DUP1 REVERT JUMPDEST PUSH1 0x0 DUP2 SWAP1 POP SWAP2 SWAP1 POP JUMP JUMPDEST PUSH2 0x203 DUP2 PUSH2 0x1F0 JUMP JUMPDEST DUP2 EQ PUSH2 0x20E JUMPI PUSH1 0x0 DUP1 REVERT JUMPDEST POP JUMP JUMPDEST PUSH1 0x0 DUP2 CALLDATALOAD SWAP1 POP PUSH2 0x220 DUP2 PUSH2 0x1FA JUMP JUMPDEST SWAP3 SWAP2 POP POP JUMP JUMPDEST PUSH1 0x0 PUSH1 0x20 DUP3 DUP5 SUB SLT ISZERO PUSH2 0x23C JUMPI PUSH2 0x23B PUSH2 0x1EB JUMP JUMPDEST JUMPDEST PUSH1 0x0 PUSH2 0x24A DUP5 DUP3 DUP6 ADD PUSH2 0x211 JUMP JUMPDEST SWAP2 POP POP SWAP3 SWAP2 POP POP JUMP JUMPDEST PUSH1 0x0 PUSH20 0xFFFFFFFFFFFFFFFFFFFFFFFFFFFFFFFFFFFFFFFF DUP3 AND SWAP1 POP SWAP2 SWAP1 POP JUMP JUMPDEST PUSH1 0x0 PUSH2 0x27E DUP3 PUSH2 0x253 JUMP JUMPDEST SWAP1 POP SWAP2 SWAP1 POP JUMP JUMPDEST PUSH2 0x28E DUP2 PUSH2 0x273 JUMP JUMPDEST DUP3 MSTORE POP POP JUMP JUMPDEST PUSH2 0x29D DUP2 PUSH2 0x1F0 JUMP JUMPDEST DUP3 MSTORE POP POP JUMP JUMPDEST PUSH1 0x0 PUSH1 0x40 DUP3 ADD SWAP1 POP PUSH2 0x2B8 PUSH1 0x0 DUP4 ADD DUP6 PUSH2 0x285 JUMP JUMPDEST PUSH2 0x2C5 PUSH1 0x20 DUP4 ADD DUP5 PUSH2 0x294 JUMP JUMPDEST SWAP4 SWAP3 POP POP POP JUMP JUMPDEST PUSH32 0x4E487B7100000000000000000000000000000000000000000000000000000000 PUSH1 0x0 MSTORE PUSH1 0x11 PUSH1 0x4 MSTORE PUSH1 0x24 PUSH1 0x0 REVERT JUMPDEST PUSH1 0x0 PUSH2 0x306 DUP3 PUSH2 0x1F0 JUMP JUMPDEST SWAP2 POP PUSH2 0x311 DUP4 PUSH2 0x1F0 JUMP JUMPDEST SWAP3 POP DUP3 DUP3 MUL PUSH2 0x31F DUP2 PUSH2 0x1F0 JUMP JUMPDEST SWAP2 POP DUP3 DUP3 DIV DUP5 EQ DUP4 ISZERO OR PUSH2 0x336 JUMPI PUSH2 0x335 PUSH2 0x2CC JUMP JUMPDEST JUMPDEST POP SWAP3 SWAP2 POP POP JUMP INVALID LOG2 PUSH5 0x6970667358 0x22 SLT KECCAK256 MUL 0xF6 EXTCODEHASH GAS 0xF6 0xB7 0xC9 XOR 0x2B DUP8 0xA9 PUSH31 0x956B35C8ABBAADAB612FCA9E6CB4E0ACCD7FC7A064736F6C634300081A0033 "
				},
				"gasEstimates": {
					"creation": {
						"codeDepositCost": "176600",
						"executionCost": "22326",
						"totalCost": "198926"
					},
					"external": {
						"guess(uint256)": "infinite",
						"guessHistory(uint256)": "infinite"
					}
				},
				"methodIdentifiers": {
					"guess(uint256)": "9189fec1",
					"guessHistory(uint256)": "37ee3fae"
				}
			},
			"storageLayout": {
				"storage": [
					{
						"astId": 4,
						"contract": "contracts/Guess.sol:GuessNumber",
						"label": "luckyNumber",
						"offset": 0,
						"slot": "0",
						"type": "t_uint256"
					},
					{
						"astId": 13,
						"contract": "contracts/Guess.sol:GuessNumber",
						"label": "guessHistory",
						"offset": 0,
						"slot": "1",
						"type": "t_array(t_struct(GuessPerson)9_storage)dyn_storage"
					}
				],
				"types": {
					"t_address": {
						"encoding": "inplace",
						"label": "address",
						"numberOfBytes": "20"
					},
					"t_array(t_struct(GuessPerson)9_storage)dyn_storage": {
						"base": "t_struct(GuessPerson)9_storage",
						"encoding": "dynamic_array",
						"label": "struct GuessNumber.GuessPerson[]",
						"numberOfBytes": "32"
					},
					"t_struct(GuessPerson)9_storage": {
						"encoding": "inplace",
						"label": "struct GuessNumber.GuessPerson",
						"members": [
							{
								"astId": 6,
								"contract": "contracts/Guess.sol:GuessNumber",
								"label": "person",
								"offset": 0,
								"slot": "0",
								"type": "t_address"
							},
							{
								"astId": 8,
								"contract": "contracts/Guess.sol:GuessNumber",
								"label": "number",
								"offset": 0,
								"slot": "1",
								"type": "t_uint256"
							}
						],
						"numberOfBytes": "64"
					},
					"t_uint256": {
						"encoding": "inplace",
						"label": "uint256",
						"numberOfBytes": "32"
					}
				}
			},
			"userdoc": {
				"kind": "user",
				"methods": {},
				"version": 1
			}
		}
	}
}